:020000040800F2
:100000000050002095070008E5070008E5070008F4
:10001000E5070008E5070008E50700080000000004
:10002000000000000000000000000000E5070008DC
:10003000E507000800000000E50700083907000890
:10004000E5070008E5070008E5070008E5070008E0
:10005000E5070008E507000811040008250400086A
:10006000E5070008E5070008E5070008E5070008C0
:10007000E5070008E5070008E5070008E5070008B0
:10008000E5070008E5070008E5070008E5070008A0
:10009000E5070008E5070008E5070008E507000890
:1000A000E5070008E5070008E5070008E507000880
:1000B000E5070008E5070008E5070008E507000870
:1000C000E5070008E5070008E5070008E507000860
:1000D000E5070008E5070008E5070008E507000850
:1000E000E5070008E507000800000000E507000834
:1000F000E5070008E5070008E5070008E507000830
:10010000E5070008E5070008E5070008E50700081F
:10011000E5070008E5070008E5070008E50700080F
:10012000E5070008E5070008E5070008E5070008FF
:1001300010B5054C237833B9044B13B10448AFF321
:1001400000800123237010BD00000020000000008B
:100150003008000808B5034B1BB103490348AFF34F
:10016000008008BD000000000400002030080008E6
:1001700080B483B000AF0346FB710B46BB711346DE
:100180007B71FB79022B00F2B680BB790F2B00F25A
:10019000B2807B790F2B00F2AE80BB79072B52D84F
:1001A000FB79022B37D0022B00F3A680002B02D064
:1001B000012B18D0A0E0534B1B68BA7992000F2195
:1001C00001FA02F2D24311464E4A0B4013604D4BE6
:1001D0001B687979BA79920001FA02F21146494A0C
:1001E0000B43136088E0484B1B68BA7992000F21DB
:1001F00001FA02F2D2431146434A0B401360424BCC
:100200001B687979BA79920001FA02F211463E4AE6
:100210000B43136070E03D4B1B68BA7992000F21CD
:1002200001FA02F2D2431146384A0B401360374BB1
:100230001B687979BA79920001FA02F21146334AC1
:100240000B43136058E0BB790F2B54D8BB79083BA4
:10025000BB71FB79022B36D0022B4DDC002B02D078
:10026000012B18D048E02A4B1B68BA7992000F2165
:1002700001FA02F2D2431146254A0B401360244B87
:100280001B687979BA79920001FA02F21146204A84
:100290000B43136030E01F4B1B68BA7992000F21AB
:1002A00001FA02F2D24311461A4A0B401360194B6D
:1002B0001B687979BA79920001FA02F21146154A5F
:1002C0000B43136018E0144B1B68BA7992000F219E
:1002D00001FA02F2D24311460F4A0B4013600E4B53
:1002E0001B687979BA79920001FA02F211460A4A3A
:1002F0000B43136000E000BF00BF0C37BD4680BC5D
:10030000704700BF00080140000C01400010014090
:1003100004080140040C01400410014080B483B083
:1003200000AF0346FB710B46BB7113467B71FB7933
:10033000022B61D8BB790F2B5ED87B79002B2DD196
:10034000FB79022B1ED0022B57DC002B02D0012B95
:100350000CD052E02B4B1B68BA79012101FA02F252
:10036000D2431146274A0B40136046E0264B1B68D8
:10037000BA79012101FA02F2D2431146224A0B4016
:1003800013603AE0214B1B68BA79012101FA02F2AD
:10039000D24311461D4A0B4013602EE07B79012B9E
:1003A0002AD1FB79022B1CD0022B26DC002B02D099
:1003B000012B0BD021E0134B1B68BA79012101FA04
:1003C00002F211460F4A0B43136016E00E4B1B68F6
:1003D000BA79012101FA02F211460B4A0B4313606C
:1003E0000BE00A4B1B68BA79012101FA02F21146AF
:1003F000064A0B43136000E000BF00BF0C37BD4648
:1004000080BC70470C0801400C0C01400C100140EE
:1004100080B500AF024B1B68984700BF80BD00BF8E
:100420001C00002080B500AF024B1B68984700BF3E
:1004300080BD00BF2000002080B400AF0A4B1B68C5
:10044000094A43F001031360084B1B68074A23F075
:1004500001031360054B1B68044A23F00203136079
:1004600000BFBD4680BC704700100240041002402F
:1004700080B483B000AF03460A46FB711346BB71DC
:10048000BB791F2B2AD8FB79022B1CD0022B25DC31
:10049000002B02D0012B0BD020E0134B1B68BA7944
:1004A000012101FA02F211460F4A0B43136015E0D5
:1004B0000E4B1B68BA79012101FA02F211460B4A70
:1004C0000B4313600AE00A4B1B68BA79012101FA59
:1004D00002F21146064A0B43136000BF00BF0C37FF
:1004E000BD4680BC704700BF141002401C10024083
:1004F0001810024080B500AFFFF79EFF04210220D4
:10050000FFF7B6FF02220D210220FFF731FE022283
:100510000E210220FFF72CFE02220F210220FFF7FE
:1005200027FE0A4B01220021002000F077F8084B3B
:1005300002220121012000F071F8064B0322022162
:10054000022000F06BF800F05BF8FEE759050008A8
:1005500091050008C905000880B500AF0B4B1B785A
:10056000002B08D100220D210220FFF7D7FE074BF8
:1005700001221A7007E001220D210220FFF7CEFEB2
:10058000024B00221A7000BF80BD00BF2400002073
:1005900080B500AF0B4B1B78002B08D100220E2139
:1005A0000220FFF7BBFE074B01221A7007E0012271
:1005B0000E210220FFF7B2FE024B00221A7000BF8C
:1005C00080BD00BF2500002080B500AF0B4B1B781D
:1005D000002B08D100220F210220FFF79FFE074BBE
:1005E00001221A7007E001220F210220FFF796FE78
:1005F000024B00221A7000BF80BD00BF2600002001
:1006000080B500AF00F066F80249034800F06EF8CC
:1006100000BF80BD6106000840420F0080B485B075
:1006200000AF7B600346FB730B46BB8113467B81A7
:10063000FB7B0A497A8921F83320FB7B074ADB00E0
:100640001344BA895A80FB7B044ADB0013447A685E
:100650005A6000BF1437BD4680BC70472800002098
:1006600080B582B000AF0023FB7128E0FB79184A07
:10067000DB0013445B88002B12D1FB79144ADB00AA
:1006800013445B689847FB79114A32F83320FB79B1
:10069000013A91B20E4ADB0013440A465A800BE03D
:1006A000FA790B49D3000B445B88013B98B20849A7
:1006B000D3000B4402465A80FB790133FB71FB796E
:1006C000022BD3D900BF00BF0837BD4680BD00BF95
:1006D0002800002080B400AF034B00221A6000BF46
:1006E000BD4680BC704700BF10E000E080B483B01E
:1006F00000AF786039600D4A7B6853600B4B1B6814
:100700000A4A43F001031360094A3B681360094B2E
:1007100004221A70054B1B68044A43F0020313605D
:1007200000BF0C37BD4680BC704700BF10E000E042
:10073000400000204400002080B582B000AF124B82
:100740001B78022B11D1114B1B68104A23F00203B6
:1007500013600E4B1B680D4A23F0010313600B4B13
:1007600000225A60094B00229A60094B1B68984787
:10077000064B1B681B0CDBB203F00103FB7100BFCF
:100780000837BD4680BD00BF4400002010E000E0F7
:10079000400000200D488546AFF300800C480D490D
:1007A0000D4A002302E0D458C4500433C4188C42CC
:1007B000F9D30A4A0A4C002301E013600432A24232
:1007C000FBD300F011F8FFF795FEFEE70050002084
:1007D0000000002000000020500800080000002059
:1007E00048000020FEE7000070B500260C4D0D4CBF
:1007F000641BA410A64209D100F01AF800260A4D85
:100800000A4C641BA410A64205D170BD55F8043BE8
:1008100098470136EEE755F8043B98470136F2E772
:100820004808000848080008480800084C08000864
:10083000F8B500BFF8BC08BC9E467047F8B500BFCD
:08084000F8BC08BC9E4670479D
:04084800550100084E
:04084C00310100086E
:040000050800079553
:00000001FF
